20060109000000010001000120120829NSNNFSN     000000000000000001
20060109000050540000000120050929NSNNFSN     000000000000000001
20100408280170010000000120100211NSNNFSN     000007897780146454
20000131327900040000000319991101NSNNFSN     
20000315327900040000022819991215NSNNFSN     
20100909290420010000000120100721NSNNFSN     000007897780149127
20100310000432110000000120091026NSNNFSN     000009788575131343
20100830000432110000010120100408NSNNFSN     000009788575131343
20080915238780020000000120080821NSNNFSN     000009788599859193
20110105009788240000000120100920NSNNFSN     000009789788588665
20050218179090010000000120041124NSNNFSN     000000000000000011
20100310000432120000000120091026NSNNFSN     000009788573125207
20100830000432120000010120100408NSNNFSN     000009788573125207
20100827288940010000000120100701NSNNFSN     000007897710154375
20100628279780010000000120100428NSNNFSN     000007897710153736
20101116279780010000000220100924NSNNFSN     000007897710157048
20110118279780010000000320101124NSNNFSN     000007897710158076
20110309279780010000000420110112NSNNFSN     000007897710159165
20110621279780010000000520110426NSNNFSN     000007897710160543
20090824261470010000000120090622NSNNFSN     000007897710146806
20010612136540010000000120010515NSNNFSN     000000008588255073
20120608000675370000000120120409NSNNFSN     000009788575569412
20120615000675370000000220120416NSNNFSN     000009788575569429
20041011126230020000001320040812NSNNFSN     000977180609200113
20100720270690020000000120100625NSNNFSN     000007897780144160
20091221270690010000000120091028NSNNFSN     000007897780144160
20100427270690010000000220100302NSNNFSN     000007897780146775
20100803270690010000000320100609NSNNFSN     000007897780148342
20110620270690010000000420110504NSNNFSN     000007897780154183
20111014000756850000000120110812NSNNFSN     000009788538900924
20120518000756850000000120120319SSNNFSN     000009788538900924
20060510196190010000000120060404NSNNFSN     000977141453100801
20060711196190010000000220060605NSNNFSN     000977141453100802
20060926196190010000000320060821NSNNFSN     000977141453100803
20061226196190010000000420061117NSNNFSN     000977141453100804
20070131196190010000000520061227NSNNFSN     000977141453100805
20070615196190010000000620070420NSNNFSN     000977141453100806
20070905196190010000000720070711NSNNFSN     000977141453100807
20071204196190010000000820071008NSNNFSN     000977141453100808
20080129196190010000000920071204NSNNFSN     000977141453100809
20080520196190010000001020080325NSNNFSN     000977141453100810
20080715196190010000001120080520NSNNFSN     000977141453100811
20080930196190010000001220080902NSNNFSN     000977141453100812
20081209196190010000001320081014NSNNFSN     000977141453100813
20081222196190010000001420081119NSNNFSN     000977141453100814
20090203196190010000001520081216NSNNFSN     000977141453100815
20100813000731730000000120100610NSNNFSN     000007897763451117
20120330000731730000000120120126SSNNFSN     000007897763451117
20101230000757580000000120101028NSNNFSN     000007897763452596